{
  "contractName": "Voting",
  "abi": [
    {
      "inputs": [],
      "stateMutability": "nonpayable",
      "type": "constructor"
    },
    {
      "anonymous": false,
      "inputs": [
        {
          "indexed": true,
          "internalType": "address",
          "name": "previousOwner",
          "type": "address"
        },
        {
          "indexed": true,
          "internalType": "address",
          "name": "newOwner",
          "type": "address"
        }
      ],
      "name": "OwnershipTransferred",
      "type": "event"
    },
    {
      "anonymous": false,
      "inputs": [
        {
          "indexed": false,
          "internalType": "uint256",
          "name": "proposalId",
          "type": "uint256"
        }
      ],
      "name": "ProposalRegistered",
      "type": "event"
    },
    {
      "anonymous": false,
      "inputs": [],
      "name": "ProposalsRegistrationEnded",
      "type": "event"
    },
    {
      "anonymous": false,
      "inputs": [],
      "name": "ProposalsRegistrationStarted",
      "type": "event"
    },
    {
      "anonymous": false,
      "inputs": [
        {
          "indexed": false,
          "internalType": "address",
          "name": "voter",
          "type": "address"
        },
        {
          "indexed": false,
          "internalType": "uint256",
          "name": "proposalId",
          "type": "uint256"
        }
      ],
      "name": "Voted",
      "type": "event"
    },
    {
      "anonymous": false,
      "inputs": [
        {
          "indexed": false,
          "internalType": "address",
          "name": "voterAddress",
          "type": "address"
        }
      ],
      "name": "VoterRegistered",
      "type": "event"
    },
    {
      "anonymous": false,
      "inputs": [],
      "name": "VotesTallied",
      "type": "event"
    },
    {
      "anonymous": false,
      "inputs": [],
      "name": "VotingSessionEnded",
      "type": "event"
    },
    {
      "anonymous": false,
      "inputs": [],
      "name": "VotingSessionStarted",
      "type": "event"
    },
    {
      "anonymous": false,
      "inputs": [
        {
          "indexed": false,
          "internalType": "enum Voting.WorkflowStatus",
          "name": "previousStatus",
          "type": "uint8"
        },
        {
          "indexed": false,
          "internalType": "enum Voting.WorkflowStatus",
          "name": "newStatus",
          "type": "uint8"
        }
      ],
      "name": "WorkflowStatusChange",
      "type": "event"
    },
    {
      "inputs": [],
      "name": "administrateur",
      "outputs": [
        {
          "internalType": "address",
          "name": "",
          "type": "address"
        }
      ],
      "stateMutability": "view",
      "type": "function",
      "constant": true
    },
    {
      "inputs": [
        {
          "internalType": "address",
          "name": "",
          "type": "address"
        }
      ],
      "name": "electeurs",
      "outputs": [
        {
          "internalType": "bool",
          "name": "isRegistered",
          "type": "bool"
        },
        {
          "internalType": "bool",
          "name": "hasVoted",
          "type": "bool"
        },
        {
          "internalType": "uint256",
          "name": "votedProposalId",
          "type": "uint256"
        }
      ],
      "stateMutability": "view",
      "type": "function",
      "constant": true
    },
    {
      "inputs": [],
      "name": "owner",
      "outputs": [
        {
          "internalType": "address",
          "name": "",
          "type": "address"
        }
      ],
      "stateMutability": "view",
      "type": "function",
      "constant": true
    },
    {
      "inputs": [],
      "name": "renounceOwnership",
      "outputs": [],
      "stateMutability": "nonpayable",
      "type": "function"
    },
    {
      "inputs": [
        {
          "internalType": "address",
          "name": "newOwner",
          "type": "address"
        }
      ],
      "name": "transferOwnership",
      "outputs": [],
      "stateMutability": "nonpayable",
      "type": "function"
    },
    {
      "inputs": [
        {
          "internalType": "address",
          "name": "",
          "type": "address"
        }
      ],
      "name": "whitelist",
      "outputs": [
        {
          "internalType": "bool",
          "name": "",
          "type": "bool"
        }
      ],
      "stateMutability": "view",
      "type": "function",
      "constant": true
    },
    {
      "inputs": [],
      "name": "workflowStatus",
      "outputs": [
        {
          "internalType": "enum Voting.WorkflowStatus",
          "name": "",
          "type": "uint8"
        }
      ],
      "stateMutability": "view",
      "type": "function",
      "constant": true
    },
    {
      "inputs": [
        {
          "internalType": "address",
          "name": "electeur",
          "type": "address"
        }
      ],
      "name": "aRegisterVoter",
      "outputs": [],
      "stateMutability": "nonpayable",
      "type": "function"
    },
    {
      "inputs": [],
      "name": "bProposalsRegistrationStartedSession",
      "outputs": [],
      "stateMutability": "nonpayable",
      "type": "function"
    },
    {
      "inputs": [
        {
          "internalType": "string",
          "name": "_description",
          "type": "string"
        }
      ],
      "name": "cAddProposal",
      "outputs": [],
      "stateMutability": "nonpayable",
      "type": "function"
    },
    {
      "inputs": [],
      "name": "dProposalsRegistrationEnd",
      "outputs": [],
      "stateMutability": "nonpayable",
      "type": "function"
    },
    {
      "inputs": [],
      "name": "eVotingSessionStart",
      "outputs": [],
      "stateMutability": "nonpayable",
      "type": "function"
    },
    {
      "inputs": [
        {
          "internalType": "uint256",
          "name": "_idProposal",
          "type": "uint256"
        }
      ],
      "name": "fvote",
      "outputs": [],
      "stateMutability": "nonpayable",
      "type": "function"
    },
    {
      "inputs": [],
      "name": "gVotingSessionEndeded",
      "outputs": [],
      "stateMutability": "nonpayable",
      "type": "function"
    },
    {
      "inputs": [],
      "name": "hcompteVotes",
      "outputs": [],
      "stateMutability": "nonpayable",
      "type": "function"
    },
    {
      "inputs": [],
      "name": "getProposalsNumbers",
      "outputs": [
        {
          "internalType": "uint256",
          "name": "",
          "type": "uint256"
        }
      ],
      "stateMutability": "view",
      "type": "function",
      "constant": true
    },
    {
      "inputs": [
        {
          "internalType": "uint256",
          "name": "index",
          "type": "uint256"
        }
      ],
      "name": "getProposalDescription",
      "outputs": [
        {
          "internalType": "string",
          "name": "",
          "type": "string"
        }
      ],
      "stateMutability": "view",
      "type": "function",
      "constant": true
    },
    {
      "inputs": [],
      "name": "getWinningProposal",
      "outputs": [
        {
          "internalType": "string",
          "name": "",
          "type": "string"
        }
      ],
      "stateMutability": "view",
      "type": "function",
      "constant": true
    },
    {
      "inputs": [],
      "name": "getWorkflowStatus",
      "outputs": [
        {
          "internalType": "enum Voting.WorkflowStatus",
          "name": "",
          "type": "uint8"
        }
      ],
      "stateMutability": "view",
      "type": "function",
      "constant": true
    }
  ],
  "bytecode": "0x608060405260008060146101000a81548160ff0219169083600581111561002257fe5b021790555034801561003357600080fd5b50600061004d610154640100000000026401000000009004565b9050806000806101000a81548173ffffffffffffffffffffffffffffffffffffffff021916908373ffffffffffffffffffffffffffffffffffffffff1602179055508073ffffffffffffffffffffffffffffffffffffffff16600073ffffffffffffffffffffffffffffffffffffffff167f8be0079c531659141344cd1fd0a4f28419497f9722a3daafe3b4186f6b6457e060405160405180910390a35033600260006101000a81548173ffffffffffffffffffffffffffffffffffffffff021916908373ffffffffffffffffffffffffffffffffffffffff16021790555060008060146101000a81548160ff0219169083600581111561014a57fe5b021790555061015c565b600033905090565b611f418061016b6000396000f3fe608060405234801561001057600080fd5b506004361061013e576000357c0100000000000000000000000000000000000000000000000000000000900480639b19251a116100ca578063b5ea87f41161008e578063b5ea87f4146102b5578063c93821c1146102bf578063ec2e1527146102c9578063f2fde38b146102fb578063f75d64a6146103175761013e565b80639b19251a14610221578063a0ce7b4114610251578063a1edffa21461026f578063a51346201461028d578063a72bd0a2146102ab5761013e565b8063339e283711610111578063339e2837146101a3578063715018a6146101c15780638da5cb5b146101cb5780638f83f1a3146101e957806396f2768e146102055761013e565b806308da378d146101435780630c0667651461015f578063229acb171461016957806323a5983414610199575b600080fd5b61015d6004803603810190610158919061189a565b610335565b005b6101676104f9565b005b610183600480360381019061017e91906118db565b61064e565b6040516101909190611c48565b60405180910390f35b6101a161070e565b005b6101ab610863565b6040516101b89190611d4a565b60405180910390f35b6101c9610870565b005b6101d36109c5565b6040516101e09190611b6e565b60405180910390f35b61020360048036038101906101fe9190611871565b6109ee565b005b61021f600480360381019061021a91906118db565b610d46565b005b61023b60048036038101906102369190611871565b610f46565b6040516102489190611bb2565b60405180910390f35b610259610f66565b6040516102669190611b6e565b60405180910390f35b610277610f8c565b6040516102849190611c04565b60405180910390f35b610295610f9f565b6040516102a29190611c48565b60405180910390f35b6102b3611090565b005b6102bd6111e5565b005b6102c76113b9565b005b6102e360048036038101906102de9190611871565b61150e565b6040516102f293929190611bcd565b60405180910390f35b61031560048036038101906103109190611871565b611552565b005b61031f611716565b60405161032c9190611c04565b60405180910390f35b6001600581111561034257fe5b600060149054906101000a900460ff16600581111561035d57fe5b1461036757600080fd5b600360003373ffffffffffffffffffffffffffffffffffffffff1673ffffffffffffffffffffffffffffffffffffffff16815260200190815260200160002060000160009054906101000a900460ff166103f6576040517f08c379a00000000000000000000000000000000000000000000000000000000081526004016103ed90611caa565b60405180910390fd5b6103fe611734565b81816000018190525060008160200181815250506001819080600181540180825580915050600190039060005260206000209060020201600090919091909150600082015181600001908051906020019061045a92919061174e565b506020820151816001015550506001600060146101000a81548160ff0219169083600581111561048657fe5b02179055507f92e393e9b54e2f801d3ea4beb0c5e71a21cc34a5d34b77d0fb8a3aa1650dc18f60018080549050036040516104c19190611d4a565b60405180910390a17f240cb87b2e4df4c318e72bd714d45a9cad60249e883ff56b1fffd83a4595a8fa60405160405180910390a15050565b61050161172c565b73ffffffffffffffffffffffffffffffffffffffff166000809054906101000a900473ffffffffffffffffffffffffffffffffffffffff1673ffffffffffffffffffffffffffffffffffffffff161461058f576040517f08c379a000000000000000000000000000000000000000000000000000000000815260040161058690611cca565b60405180910390fd5b6001600581111561059c57fe5b600060149054906101000a900460ff1660058111156105b757fe5b146105c157600080fd5b6002600060146101000a81548160ff021916908360058111156105e057fe5b02179055507f240cb87b2e4df4c318e72bd714d45a9cad60249e883ff56b1fffd83a4595a8fa60405160405180910390a17f0a97a4ee45751e2abf3e4fc8946939630b11b371ea8ae39ccdc3056e98f5cc3f60016002604051610644929190611c1f565b60405180910390a1565b60606001828154811061065d57fe5b90600052602060002090600202016000018054600181600116156101000203166002900480601f0160208091040260200160405190810160405280929190818152602001828054600181600116156101000203166002900480156107025780601f106106d757610100808354040283529160200191610702565b820191906000526020600020905b8154815290600101906020018083116106e557829003601f168201915b50505050509050919050565b61071661172c565b73ffffffffffffffffffffffffffffffffffffffff166000809054906101000a900473ffffffffffffffffffffffffffffffffffffffff1673ffffffffffffffffffffffffffffffffffffffff16146107a4576040517f08c379a000000000000000000000000000000000000000000000000000000000815260040161079b90611cca565b60405180910390fd5b600260058111156107b157fe5b600060149054906101000a900460ff1660058111156107cc57fe5b146107d657600080fd5b6003600060146101000a81548160ff021916908360058111156107f557fe5b02179055507f1b8e19a458c1bcd88553332c518cc5c4e2d5793e712ee766d4f1c14f672ef1f560405160405180910390a17f0a97a4ee45751e2abf3e4fc8946939630b11b371ea8ae39ccdc3056e98f5cc3f60026003604051610859929190611c1f565b60405180910390a1565b6000600180549050905090565b61087861172c565b73ffffffffffffffffffffffffffffffffffffffff166000809054906101000a900473ffffffffffffffffffffffffffffffffffffffff1673ffffffffffffffffffffffffffffffffffffffff1614610906576040517f08c379a00000000000000000000000000000000000000000000000000000000081526004016108fd90611cca565b60405180910390fd5b600073ffffffffffffffffffffffffffffffffffffffff166000809054906101000a900473ffffffffffffffffffffffffffffffffffffffff1673ffffffffffffffffffffffffffffffffffffffff167f8be0079c531659141344cd1fd0a4f28419497f9722a3daafe3b4186f6b6457e060405160405180910390a360008060006101000a81548173ffffffffffffffffffffffffffffffffffffffff021916908373ffffffffffffffffffffffffffffffffffffffff160217905550565b60008060009054906101000a900473ffffffffffffffffffffffffffffffffffffffff16905090565b6109f661172c565b73ffffffffffffffffffffffffffffffffffffffff166000809054906101000a900473ffffffffffffffffffffffffffffffffffffffff1673ffffffffffffffffffffffffffffffffffffffff1614610a84576040517f08c379a0000000000000000000000000000000000000000000000000000000008152600401610a7b90611cca565b60405180910390fd5b60006005811115610a9157fe5b600060149054906101000a900460ff166005811115610aac57fe5b14610ab657600080fd5b600360008273ffffffffffffffffffffffffffffffffffffffff1673ffffffffffffffffffffffffffffffffffffffff16815260200190815260200160002060000160009054906101000a900460ff1615610b46576040517f08c379a0000000000000000000000000000000000000000000000000000000008152600401610b3d90611c8a565b60405180910390fd5b600073ffffffffffffffffffffffffffffffffffffffff168173ffffffffffffffffffffffffffffffffffffffff161415610bb6576040517f08c379a0000000000000000000000000000000000000000000000000000000008152600401610bad90611cea565b60405180910390fd5b6001600360008373ffffffffffffffffffffffffffffffffffffffff1673ffffffffffffffffffffffffffffffffffffffff16815260200190815260200160002060000160006101000a81548160ff0219169083151502179055506000600360008373ffffffffffffffffffffffffffffffffffffffff1673ffffffffffffffffffffffffffffffffffffffff16815260200190815260200160002060000160016101000a81548160ff0219169083151502179055506000600360008373ffffffffffffffffffffffffffffffffffffffff1673ffffffffffffffffffffffffffffffffffffffff168152602001908152602001600020600101819055506001600460008373ffffffffffffffffffffffffffffffffffffffff1673ffffffffffffffffffffffffffffffffffffffff16815260200190815260200160002060006101000a81548160ff0219169083151502179055507fb6be2187d059cc2a55fe29e0e503b566e1e0f8c8780096e185429350acffd3dd81604051610d3b9190611b6e565b60405180910390a150565b60036005811115610d5357fe5b600060149054906101000a900460ff166005811115610d6e57fe5b14610d7857600080fd5b600360003373ffffffffffffffffffffffffffffffffffffffff1673ffffffffffffffffffffffffffffffffffffffff16815260200190815260200160002060000160019054906101000a900460ff1615610e08576040517f08c379a0000000000000000000000000000000000000000000000000000000008152600401610dff90611d0a565b60405180910390fd5b600360003373ffffffffffffffffffffffffffffffffffffffff1673ffffffffffffffffffffffffffffffffffffffff16815260200190815260200160002060000160009054906101000a900460ff16610e97576040517f08c379a0000000000000000000000000000000000000000000000000000000008152600401610e8e90611d2a565b60405180910390fd5b80600360003373ffffffffffffffffffffffffffffffffffffffff1673ffffffffffffffffffffffffffffffffffffffff168152602001908152602001600020600101819055506001808281548110610eec57fe5b9060005260206000209060020201600101600082825401925050819055507f4d99b957a2bc29a30ebd96a7be8e68fe50a3c701db28a91436490b7d53870ca43382604051610f3b929190611b89565b60405180910390a150565b60046020528060005260406000206000915054906101000a900460ff1681565b600260009054906101000a900473ffffffffffffffffffffffffffffffffffffffff1681565b600060149054906101000a900460ff1681565b6060600580811115610fad57fe5b600060149054906101000a900460ff166005811115610fc857fe5b14610fd257600080fd5b600160055481548110610fe157fe5b90600052602060002090600202016000018054600181600116156101000203166002900480601f0160208091040260200160405190810160405280929190818152602001828054600181600116156101000203166002900480156110865780601f1061105b57610100808354040283529160200191611086565b820191906000526020600020905b81548152906001019060200180831161106957829003601f168201915b5050505050905090565b61109861172c565b73ffffffffffffffffffffffffffffffffffffffff166000809054906101000a900473ffffffffffffffffffffffffffffffffffffffff1673ffffffffffffffffffffffffffffffffffffffff1614611126576040517f08c379a000000000000000000000000000000000000000000000000000000000815260040161111d90611cca565b60405180910390fd5b6000600581111561113357fe5b600060149054906101000a900460ff16600581111561114e57fe5b1461115857600080fd5b6001600060146101000a81548160ff0219169083600581111561117757fe5b02179055507f344c25562921d075a298d34b6dd1fd00d36ff293974539dfd4a8c625d9f0064c60405160405180910390a17f0a97a4ee45751e2abf3e4fc8946939630b11b371ea8ae39ccdc3056e98f5cc3f600060016040516111db929190611c1f565b60405180910390a1565b6111ed61172c565b73ffffffffffffffffffffffffffffffffffffffff166000809054906101000a900473ffffffffffffffffffffffffffffffffffffffff1673ffffffffffffffffffffffffffffffffffffffff161461127b576040517f08c379a000000000000000000000000000000000000000000000000000000000815260040161127290611cca565b60405180910390fd5b6004600581111561128857fe5b600060149054906101000a900460ff1660058111156112a357fe5b146112ad57600080fd5b6000809050600080905060008090505b6001805490508110156113225782600182815481106112d857fe5b906000526020600020906002020160010154111561131557600181815481106112fd57fe5b90600052602060002090600202016001015492508091505b80806001019150506112bd565b50806005819055506005600060146101000a81548160ff0219169083600581111561134957fe5b02179055507f0e5e95ff8725ab3e7a4b6b59998a4c344c2aa8d1485f5e60cb7f337768e6134760405160405180910390a17f0a97a4ee45751e2abf3e4fc8946939630b11b371ea8ae39ccdc3056e98f5cc3f600460056040516113ad929190611c1f565b60405180910390a15050565b6113c161172c565b73ffffffffffffffffffffffffffffffffffffffff166000809054906101000a900473ffffffffffffffffffffffffffffffffffffffff1673ffffffffffffffffffffffffffffffffffffffff161461144f576040517f08c379a000000000000000000000000000000000000000000000000000000000815260040161144690611cca565b60405180910390fd5b6003600581111561145c57fe5b600060149054906101000a900460ff16600581111561147757fe5b1461148157600080fd5b6004600060146101000a81548160ff021916908360058111156114a057fe5b02179055507fc379d349a6301baf50fb2f98d829f4ae10b1cdb7c66f4e4d8117302df7b8cd4c60405160405180910390a17f0a97a4ee45751e2abf3e4fc8946939630b11b371ea8ae39ccdc3056e98f5cc3f60036004604051611504929190611c1f565b60405180910390a1565b60036020528060005260406000206000915090508060000160009054906101000a900460ff16908060000160019054906101000a900460ff16908060010154905083565b61155a61172c565b73ffffffffffffffffffffffffffffffffffffffff166000809054906101000a900473ffffffffffffffffffffffffffffffffffffffff1673ffffffffffffffffffffffffffffffffffffffff16146115e8576040517f08c379a00000000000000000000000000000000000000000000000000000000081526004016115df90611cca565b60405180910390fd5b600073ffffffffffffffffffffffffffffffffffffffff168173ffffffffffffffffffffffffffffffffffffffff161415611658576040517f08c379a000000000000000000000000000000000000000000000000000000000815260040161164f90611c6a565b60405180910390fd5b8073ffffffffffffffffffffffffffffffffffffffff166000809054906101000a900473ffffffffffffffffffffffffffffffffffffffff1673ffffffffffffffffffffffffffffffffffffffff167f8be0079c531659141344cd1fd0a4f28419497f9722a3daafe3b4186f6b6457e060405160405180910390a3806000806101000a81548173ffffffffffffffffffffffffffffffffffffffff021916908373ffffffffffffffffffffffffffffffffffffffff16021790555050565b60008060149054906101000a900460ff16905090565b600033905090565b604051806040016040528060608152602001600081525090565b828054600181600116156101000203166002900490600052602060002090601f016020900481019282601f1061178f57805160ff19168380011785556117bd565b828001600101855582156117bd579182015b828111156117bc5782518255916020019190600101906117a1565b5b5090506117ca91906117ce565b5090565b6117f091905b808211156117ec5760008160009055506001016117d4565b5090565b90565b60008135905061180281611edd565b92915050565b600082601f83011261181957600080fd5b813561182c61182782611d92565b611d65565b9150808252602083016020830185838301111561184857600080fd5b611853838284611e7d565b50505092915050565b60008135905061186b81611ef4565b92915050565b60006020828403121561188357600080fd5b6000611891848285016117f3565b91505092915050565b6000602082840312156118ac57600080fd5b600082013567ffffffffffffffff8111156118c657600080fd5b6118d284828501611808565b91505092915050565b6000602082840312156118ed57600080fd5b60006118fb8482850161185c565b91505092915050565b61190d81611e35565b82525050565b61191c81611dda565b82525050565b61192b81611dec565b82525050565b61193a81611e47565b82525050565b600061194b82611dbe565b6119558185611dc9565b9350611965818560208601611e8c565b61196e81611ebf565b840191505092915050565b6000611986602683611dc9565b91507f4f776e61626c653a206e6577206f776e657220697320746865207a65726f206160008301527f64647265737300000000000000000000000000000000000000000000000000006020830152604082019050919050565b60006119ec601f83611dc9565b91507f6c27656c656374657572206573742064656a6120656e72656769737472c3a9006000830152602082019050919050565b6000611a2c602083611dc9565b91507f6c27656c656374657572206e276573742070617320656e72656769737472c3a96000830152602082019050919050565b6000611a6c602083611dc9565b91507f4f776e61626c653a2063616c6c6572206973206e6f7420746865206f776e65726000830152602082019050919050565b6000611aac600a83611dc9565b91507f41646472657373652030000000000000000000000000000000000000000000006000830152602082019050919050565b6000611aec600e83611dc9565b91507f412064c3a96ac3a020766f74c3a90000000000000000000000000000000000006000830152602082019050919050565b6000611b2c601783611dc9565b91507f566f7573206e27657465732070617320696e73637269730000000000000000006000830152602082019050919050565b611b6881611e2b565b82525050565b6000602082019050611b836000830184611913565b92915050565b6000604082019050611b9e6000830185611904565b611bab6020830184611b5f565b9392505050565b6000602082019050611bc76000830184611922565b92915050565b6000606082019050611be26000830186611922565b611bef6020830185611922565b611bfc6040830184611b5f565b949350505050565b6000602082019050611c196000830184611931565b92915050565b6000604082019050611c346000830185611931565b611c416020830184611931565b9392505050565b60006020820190508181036000830152611c628184611940565b905092915050565b60006020820190508181036000830152611c8381611979565b9050919050565b60006020820190508181036000830152611ca3816119df565b9050919050565b60006020820190508181036000830152611cc381611a1f565b9050919050565b60006020820190508181036000830152611ce381611a5f565b9050919050565b60006020820190508181036000830152611d0381611a9f565b9050919050565b60006020820190508181036000830152611d2381611adf565b9050919050565b60006020820190508181036000830152611d4381611b1f565b9050919050565b6000602082019050611d5f6000830184611b5f565b92915050565b6000604051905081810181811067ffffffffffffffff82111715611d8857600080fd5b8060405250919050565b600067ffffffffffffffff821115611da957600080fd5b601f19601f8301169050602081019050919050565b600081519050919050565b600082825260208201905092915050565b6000611de582611e0b565b9050919050565b60008115159050919050565b6000819050611e0682611ed0565b919050565b600073ffffffffffffffffffffffffffffffffffffffff82169050919050565b6000819050919050565b6000611e4082611e59565b9050919050565b6000611e5282611df8565b9050919050565b6000611e6482611e6b565b9050919050565b6000611e7682611e0b565b9050919050565b82818337600083830152505050565b60005b83811015611eaa578082015181840152602081019050611e8f565b83811115611eb9576000848401525b50505050565b6000601f19601f8301169050919050565b60068110611eda57fe5b50565b611ee681611dda565b8114611ef157600080fd5b50565b611efd81611e2b565b8114611f0857600080fd5b5056fea2646970667358221220a68d78e0ae4b2cea19fe8600a8daa6fe79497c0c14a7a45e408e6845b71cd2c264736f6c634300060b0033",
  "immutableReferences": {},
  "source": "\n// SPDX-License-Identifier: MIT\npragma solidity 0.6.11;\npragma experimental ABIEncoderV2;\nimport \"./libraries/Ownable.sol\";\nimport \"./libraries/Counters.sol\";\n   contract Voting is Ownable {\n        //structur electeur deja donne dans l'nonc\n        struct Voter \n        {\n            bool isRegistered;\n            bool hasVoted;\n            uint votedProposalId;\n        }\n        // structure proposition\n        struct Proposal {\n            string description;\n            uint voteCount;\n            \n        }\n        //les etats de vote dej donns dans l'nonc \n        enum WorkflowStatus {\n                            RegisteringVoters,\n                            ProposalsRegistrationStarted,\n                            ProposalsRegistrationEnded,\n                            VotingSessionStarted,\n                            VotingSessionEnded,\n                            VotesTallied\n                        }\n                        \n        WorkflowStatus public workflowStatus =WorkflowStatus.RegisteringVoters;\n        Proposal[] tabProposals;//tableau des proposition\n        address public administrateur; //adresse de l'administrateur du vote \n        mapping(address =>Voter) public electeurs;//mapping des electeurs\n        mapping(address=>bool) public whitelist; //la liste blanche des electeur\n        uint private winningProposalId; //Id du gagnant (l'index de la proposition )\n    \n      //les evenements deja donns dans l'ennonc.\n        event VoterRegistered(address voterAddress);\n        event ProposalsRegistrationStarted();\n        event ProposalsRegistrationEnded();\n        event ProposalRegistered(uint proposalId);\n        event VotingSessionStarted();\n        event VotingSessionEnded();\n        event Voted (address voter, uint proposalId);\n        event VotesTallied();\n        event WorkflowStatusChange(WorkflowStatus previousStatus, WorkflowStatus newStatus);\n            \n       \n    \n        // liste des modifiers pour controler la synchronisation des etapes du deroulement \n        //du contrat \n        modifier votersRegistrationOpen() {\n            require(workflowStatus==WorkflowStatus.RegisteringVoters);\n            _;\n        }\n     \n        modifier proposalsRegistrationOpen(){\n            require(workflowStatus==WorkflowStatus.ProposalsRegistrationStarted);\n    \n            _;\n        }\n        modifier proposalsRegistrationEnded(){\n            require(workflowStatus==WorkflowStatus.ProposalsRegistrationEnded);\n            _;\n        }\n        modifier votingSessionOpen(){\n            \n            require(workflowStatus==WorkflowStatus.VotingSessionStarted);\n            _;\n        }\n        \n        \n        modifier VotingSessionEnd(){\n            require(workflowStatus==WorkflowStatus.VotingSessionEnded);\n            _;\n        }\n        \n        modifier voteTallied(){\n            require(workflowStatus==WorkflowStatus.VotesTallied);\n            _;\n        }\n         \n          // constructeur pour l'ememeteur du contrat \n        constructor() public \n        {\n            administrateur=msg.sender;\n            workflowStatus=WorkflowStatus.RegisteringVoters;\n         }\n    \n       // ------------------les fonctions du contrat -------------------------\n    \n            //j'ai ajout a,b,c au debut des noms des fonctions pour avoir les etapes\n            // ranges sur remix \n      \n       //1-l'administrateur du vote commence par enregistrer les votants \n    \n    function aRegisterVoter(address electeur)  public\n            onlyOwner()  votersRegistrationOpen()\n    {\n        require(!electeurs[electeur].isRegistered,\"l'electeur est deja enregistr\");\n        require(electeur!= address(0), \"Addresse 0\");\n        electeurs[electeur].isRegistered=true;\n        electeurs[electeur].hasVoted=false;\n        electeurs[electeur].votedProposalId=0;\n        whitelist[electeur]=true;\n        emit VoterRegistered(electeur);\n    }\n    \n        \n        \n        //2-L'administrateur du vote commence la session d'enregistrement de la proposition.    \n    \n    function  bProposalsRegistrationStartedSession() public\n        onlyOwner()   votersRegistrationOpen() \n    {\n         workflowStatus = WorkflowStatus.ProposalsRegistrationStarted;\n\n        emit  ProposalsRegistrationStarted();\n        emit WorkflowStatusChange(WorkflowStatus.RegisteringVoters, WorkflowStatus.ProposalsRegistrationStarted);\n    }\n    \n    \n    //2-les electeurs inscrits enregistrent  les propositions \n    function cAddProposal(string memory _description) public \n    proposalsRegistrationOpen()\n    \n    {\n        require(electeurs[msg.sender].isRegistered,\"l'electeur n'est pas enregistr\");\n        Proposal  memory newProposal;  //NewProposal=new(_idProposal,_description,0);\n        newProposal.description =_description;\n        newProposal.voteCount=0;\n        tabProposals.push(newProposal);\n        workflowStatus = WorkflowStatus.ProposalsRegistrationStarted;\n\n        emit ProposalRegistered(tabProposals.length-1);\n        emit ProposalsRegistrationEnded();\n    }\n    \n    \n    //3-l'administrateur mets fin  la session d'enregistrement de propositions \n   \n    function dProposalsRegistrationEnd() public\n        onlyOwner() proposalsRegistrationOpen() \n    { \n         workflowStatus = WorkflowStatus.ProposalsRegistrationEnded;\n\n        emit ProposalsRegistrationEnded();\n        emit WorkflowStatusChange(WorkflowStatus.ProposalsRegistrationStarted, WorkflowStatus.ProposalsRegistrationEnded);\n    }\n\n//4-l'administrateur du votre demarre une session de vote \n    \n     function eVotingSessionStart() public \n        onlyOwner()  proposalsRegistrationEnded()\n    {\n        workflowStatus = WorkflowStatus.VotingSessionStarted;\n        emit VotingSessionStarted();\n        emit WorkflowStatusChange(WorkflowStatus.ProposalsRegistrationEnded, WorkflowStatus.VotingSessionStarted);\n    }\n    \n    \n    //4-les electeur inscrit peuvent voter . en choisissant l'id de la proposition /Poids du vote 1 \n    function fvote(uint _idProposal) public  votingSessionOpen()\n    {\n        require(!electeurs[msg.sender].hasVoted, \"A dj vot\");\n        require(electeurs[msg.sender].isRegistered,\"Vous n'etes pas inscris\");\n        electeurs[msg.sender].votedProposalId=_idProposal;\n        tabProposals[_idProposal].voteCount +=1;\n        emit Voted (msg.sender,_idProposal);\n    }\n\n//5_l'administrateur let fin a la session du vote \n   \n    function gVotingSessionEndeded()public \n        onlyOwner() votingSessionOpen()\n     {\n        workflowStatus = WorkflowStatus.VotingSessionEnded;\n        emit VotingSessionEnded();\n        emit WorkflowStatusChange(WorkflowStatus.VotingSessionStarted, WorkflowStatus.VotingSessionEnded);   \n    }\n    \n    \n    //6-l'administrateur compte les votes \n    \n    function hcompteVotes() public onlyOwner  VotingSessionEnd() \n    {\n        uint nbrvoix=0;\n        uint winnigproposalIndex=0;\n            for(uint p=0;p<tabProposals.length;p++)\n            {\n                if (tabProposals[p].voteCount > nbrvoix)\n                {\n                    nbrvoix=tabProposals[p].voteCount;\n                    winnigproposalIndex=p;\n                }\n            }\n            winningProposalId=winnigproposalIndex;//winnigproposalIndex deja declar au debut du contrat\n            workflowStatus=WorkflowStatus.VotesTallied;\n            emit VotesTallied();\n            emit WorkflowStatusChange(WorkflowStatus.VotingSessionEnded, WorkflowStatus.VotesTallied); \n    }\n    \n    //obtenir le nombre de proposition \n    function getProposalsNumbers() public view\n         returns (uint) \n    {\n         return tabProposals.length;\n    }  \n     \n     //obtenir la description d'une propistion a partir de l'index \n    function getProposalDescription(uint index) public view \n         returns (string memory ) {\n         return tabProposals[index].description;\n     } \n     \n     function getWinningProposal() external   view \n            voteTallied()\n                returns (string memory)\n    {\n        return tabProposals[winningProposalId].description;\n    }\n    \n    function getWorkflowStatus() public view\n\t    returns (WorkflowStatus) {\n\t    return workflowStatus;       \n\t}\n\n    \n     \n    }\n    ",
  "sourcePath": "/Users/amelk/Desktop/Defi2DV/contracts/Voting.sol",
  "compiler": {
    "name": "solc",
    "version": "0.6.11+commit.5ef660b1.Emscripten.clang"
  },
  "schemaVersion": "3.3.0",
  "updatedAt": "2021-01-11T15:27:19.690Z",
  "networkType": "ethereum",
  "devdoc": {
    "kind": "dev",
    "methods": {
      "owner()": {
        "details": "Returns the address of the current owner."
      },
      "renounceOwnership()": {
        "details": "Leaves the contract without owner. It will not be possible to call `onlyOwner` functions anymore. Can only be called by the current owner. NOTE: Renouncing ownership will leave the contract without an owner, thereby removing any functionality that is only available to the owner."
      },
      "transferOwnership(address)": {
        "details": "Transfers ownership of the contract to a new account (`newOwner`). Can only be called by the current owner."
      }
    },
    "version": 1
  },
  "userdoc": {
    "kind": "user",
    "methods": {},
    "version": 1
  }
}